{
  "contractName": "ContratoPaciente",
  "abi": [
    {
      "inputs": [
        {
          "internalType": "uint256",
          "name": "",
          "type": "uint256"
        }
      ],
      "name": "listaPacientes",
      "outputs": [
        {
          "internalType": "string",
          "name": "nome",
          "type": "string"
        },
        {
          "internalType": "uint256",
          "name": "idade",
          "type": "uint256"
        },
        {
          "internalType": "string",
          "name": "cpf",
          "type": "string"
        },
        {
          "internalType": "string",
          "name": "endereco",
          "type": "string"
        }
      ],
      "stateMutability": "view",
      "type": "function",
      "constant": true
    },
    {
      "inputs": [
        {
          "internalType": "address",
          "name": "",
          "type": "address"
        }
      ],
      "name": "pacientes",
      "outputs": [
        {
          "internalType": "string",
          "name": "nome",
          "type": "string"
        },
        {
          "internalType": "uint256",
          "name": "idade",
          "type": "uint256"
        },
        {
          "internalType": "string",
          "name": "cpf",
          "type": "string"
        },
        {
          "internalType": "string",
          "name": "endereco",
          "type": "string"
        }
      ],
      "stateMutability": "view",
      "type": "function",
      "constant": true
    },
    {
      "inputs": [
        {
          "internalType": "string",
          "name": "_nome",
          "type": "string"
        },
        {
          "internalType": "uint256",
          "name": "_idade",
          "type": "uint256"
        },
        {
          "internalType": "string",
          "name": "_cpf",
          "type": "string"
        },
        {
          "internalType": "string",
          "name": "_endereco",
          "type": "string"
        }
      ],
      "name": "cadastrarPaciente",
      "outputs": [],
      "stateMutability": "nonpayable",
      "type": "function"
    },
    {
      "inputs": [],
      "name": "verTodosPacientes",
      "outputs": [
        {
          "components": [
            {
              "internalType": "string",
              "name": "nome",
              "type": "string"
            },
            {
              "internalType": "uint256",
              "name": "idade",
              "type": "uint256"
            },
            {
              "internalType": "string",
              "name": "cpf",
              "type": "string"
            },
            {
              "internalType": "string",
              "name": "endereco",
              "type": "string"
            }
          ],
          "internalType": "struct ContratoPaciente.Paciente[]",
          "name": "",
          "type": "tuple[]"
        }
      ],
      "stateMutability": "view",
      "type": "function",
      "constant": true
    }
  ],
  "bytecode": "0x608060405234801561001057600080fd5b506113a8806100206000396000f3fe608060405234801561001057600080fd5b506004361061004c5760003560e01c80631fa00f17146100515780635caa1ddf1461006f578063bc14b7dc146100a2578063c34af3e6146100d5575b600080fd5b6100596100f1565b6040516100669190610b60565b60405180910390f35b61008960048036038101906100849190610bc2565b610310565b6040516100999493929190610c48565b60405180910390f35b6100bc60048036038101906100b79190610d00565b6104e8565b6040516100cc9493929190610c48565b60405180910390f35b6100ef60048036038101906100ea9190610e62565b6106b0565b005b60606002805480602002602001604051908101604052809291908181526020016000905b82821015610307578382906000526020600020906004020160405180608001604052908160008201805461014890610f4c565b80601f016020809104026020016040519081016040528092919081815260200182805461017490610f4c565b80156101c15780601f10610196576101008083540402835291602001916101c1565b820191906000526020600020905b8154815290600101906020018083116101a457829003601f168201915b50505050508152602001600182015481526020016002820180546101e490610f4c565b80601f016020809104026020016040519081016040528092919081815260200182805461021090610f4c565b801561025d5780601f106102325761010080835404028352916020019161025d565b820191906000526020600020905b81548152906001019060200180831161024057829003601f168201915b5050505050815260200160038201805461027690610f4c565b80601f01602080910402602001604051908101604052809291908181526020018280546102a290610f4c565b80156102ef5780601f106102c4576101008083540402835291602001916102ef565b820191906000526020600020905b8154815290600101906020018083116102d257829003601f168201915b50505050508152505081526020019060010190610115565b50505050905090565b6002818154811061032057600080fd5b906000526020600020906004020160009150905080600001805461034390610f4c565b80601f016020809104026020016040519081016040528092919081815260200182805461036f90610f4c565b80156103bc5780601f10610391576101008083540402835291602001916103bc565b820191906000526020600020905b81548152906001019060200180831161039f57829003601f168201915b5050505050908060010154908060020180546103d790610f4c565b80601f016020809104026020016040519081016040528092919081815260200182805461040390610f4c565b80156104505780601f1061042557610100808354040283529160200191610450565b820191906000526020600020905b81548152906001019060200180831161043357829003601f168201915b50505050509080600301805461046590610f4c565b80601f016020809104026020016040519081016040528092919081815260200182805461049190610f4c565b80156104de5780601f106104b3576101008083540402835291602001916104de565b820191906000526020600020905b8154815290600101906020018083116104c157829003601f168201915b5050505050905084565b600060205280600052604060002060009150905080600001805461050b90610f4c565b80601f016020809104026020016040519081016040528092919081815260200182805461053790610f4c565b80156105845780601f1061055957610100808354040283529160200191610584565b820191906000526020600020905b81548152906001019060200180831161056757829003601f168201915b50505050509080600101549080600201805461059f90610f4c565b80601f01602080910402602001604051908101604052809291908181526020018280546105cb90610f4c565b80156106185780601f106105ed57610100808354040283529160200191610618565b820191906000526020600020905b8154815290600101906020018083116105fb57829003601f168201915b50505050509080600301805461062d90610f4c565b80601f016020809104026020016040519081016040528092919081815260200182805461065990610f4c565b80156106a65780601f1061067b576101008083540402835291602001916106a6565b820191906000526020600020905b81548152906001019060200180831161068957829003601f168201915b5050505050905084565b6000826040516020016106c39190610fb9565b6040516020818303038152906040528051906020012090506001600082815260200190815260200160002060009054906101000a900460ff161561073c576040517f08c379a000000000000000000000000000000000000000000000000000000000815260040161073390611042565b60405180910390fd5b61074461095c565b85816000018190525084816020018181525050838160400181905250828160600181905250610772816108f2565b156108af57806000803373ffffffffffffffffffffffffffffffffffffffff1673ffffffffffffffffffffffffffffffffffffffff16815260200190815260200160002060008201518160000190816107cb919061120e565b506020820151816001015560408201518160020190816107eb919061120e565b506060820151816003019081610801919061120e565b50905050600180600084815260200190815260200160002060006101000a81548160ff02191690831515021790555060028190806001815401808255809150506001900390600052602060002090600402016000909190919091506000820151816000019081610871919061120e565b50602082015181600101556040820151816002019081610891919061120e565b5060608201518160030190816108a7919061120e565b5050506108ea565b6040517f08c379a00000000000000000000000000000000000000000000000000000000081526004016108e190611352565b60405180910390fd5b505050505050565b60006109018260200151610932565b801561091657506109158260000151610940565b5b801561092b575061092a826040015161094e565b5b9050919050565b6000600c8210159050919050565b600080825114159050919050565b6000600b8251149050919050565b6040518060800160405280606081526020016000815260200160608152602001606081525090565b600081519050919050565b600082825260208201905092915050565b6000819050602082019050919050565b600081519050919050565b600082825260208201905092915050565b60005b838110156109ea5780820151818401526020810190506109cf565b60008484015250505050565b6000601f19601f8301169050919050565b6000610a12826109b0565b610a1c81856109bb565b9350610a2c8185602086016109cc565b610a35816109f6565b840191505092915050565b6000819050919050565b610a5381610a40565b82525050565b60006080830160008301518482036000860152610a768282610a07565b9150506020830151610a8b6020860182610a4a565b5060408301518482036040860152610aa38282610a07565b91505060608301518482036060860152610abd8282610a07565b9150508091505092915050565b6000610ad68383610a59565b905092915050565b6000602082019050919050565b6000610af682610984565b610b00818561098f565b935083602082028501610b12856109a0565b8060005b85811015610b4e5784840389528151610b2f8582610aca565b9450610b3a83610ade565b925060208a01995050600181019050610b16565b50829750879550505050505092915050565b60006020820190508181036000830152610b7a8184610aeb565b905092915050565b6000604051905090565b600080fd5b600080fd5b610b9f81610a40565b8114610baa57600080fd5b50565b600081359050610bbc81610b96565b92915050565b600060208284031215610bd857610bd7610b8c565b5b6000610be684828501610bad565b91505092915050565b600082825260208201905092915050565b6000610c0b826109b0565b610c158185610bef565b9350610c258185602086016109cc565b610c2e816109f6565b840191505092915050565b610c4281610a40565b82525050565b60006080820190508181036000830152610c628187610c00565b9050610c716020830186610c39565b8181036040830152610c838185610c00565b90508181036060830152610c978184610c00565b905095945050505050565b600073ffffffffffffffffffffffffffffffffffffffff82169050919050565b6000610ccd82610ca2565b9050919050565b610cdd81610cc2565b8114610ce857600080fd5b50565b600081359050610cfa81610cd4565b92915050565b600060208284031215610d1657610d15610b8c565b5b6000610d2484828501610ceb565b91505092915050565b600080fd5b600080fd5b7f4e487b7100000000000000000000000000000000000000000000000000000000600052604160045260246000fd5b610d6f826109f6565b810181811067ffffffffffffffff82111715610d8e57610d8d610d37565b5b80604052505050565b6000610da1610b82565b9050610dad8282610d66565b919050565b600067ffffffffffffffff821115610dcd57610dcc610d37565b5b610dd6826109f6565b9050602081019050919050565b82818337600083830152505050565b6000610e05610e0084610db2565b610d97565b905082815260208101848484011115610e2157610e20610d32565b5b610e2c848285610de3565b509392505050565b600082601f830112610e4957610e48610d2d565b5b8135610e59848260208601610df2565b91505092915050565b60008060008060808587031215610e7c57610e7b610b8c565b5b600085013567ffffffffffffffff811115610e9a57610e99610b91565b5b610ea687828801610e34565b9450506020610eb787828801610bad565b935050604085013567ffffffffffffffff811115610ed857610ed7610b91565b5b610ee487828801610e34565b925050606085013567ffffffffffffffff811115610f0557610f04610b91565b5b610f1187828801610e34565b91505092959194509250565b7f4e487b7100000000000000000000000000000000000000000000000000000000600052602260045260246000fd5b60006002820490506001821680610f6457607f821691505b602082108103610f7757610f76610f1d565b5b50919050565b600081905092915050565b6000610f93826109b0565b610f9d8185610f7d565b9350610fad8185602086016109cc565b80840191505092915050565b6000610fc58284610f88565b915081905092915050565b7f435046206a61206361646173747261646f20706f72206f7574726f207061636960008201527f656e746521000000000000000000000000000000000000000000000000000000602082015250565b600061102c602583610bef565b915061103782610fd0565b604082019050919050565b6000602082019050818103600083015261105b8161101f565b9050919050565b60008190508160005260206000209050919050565b60006020601f8301049050919050565b600082821b905092915050565b6000600883026110c47fffffffffffffffffffffffffffffffffffffffffffffffffffffffffffffffff82611087565b6110ce8683611087565b95508019841693508086168417925050509392505050565b6000819050919050565b600061110b61110661110184610a40565b6110e6565b610a40565b9050919050565b6000819050919050565b611125836110f0565b61113961113182611112565b848454611094565b825550505050565b600090565b61114e611141565b61115981848461111c565b505050565b5b8181101561117d57611172600082611146565b60018101905061115f565b5050565b601f8211156111c25761119381611062565b61119c84611077565b810160208510156111ab578190505b6111bf6111b785611077565b83018261115e565b50505b505050565b600082821c905092915050565b60006111e5600019846008026111c7565b1980831691505092915050565b60006111fe83836111d4565b9150826002028217905092915050565b611217826109b0565b67ffffffffffffffff8111156112305761122f610d37565b5b61123a8254610f4c565b611245828285611181565b600060209050601f8311600181146112785760008415611266578287015190505b61127085826111f2565b8655506112d8565b601f19841661128686611062565b60005b828110156112ae57848901518255600182019150602085019450602081019050611289565b868310156112cb57848901516112c7601f8916826111d4565b8355505b6001600288020188555050505b505050505050565b7f4f73206461646f7320666f726e656369646f73206e616f2073616f2076616c6960008201527f646f73207061726120636164617374726f210000000000000000000000000000602082015250565b600061133c603283610bef565b9150611347826112e0565b604082019050919050565b6000602082019050818103600083015261136b8161132f565b905091905056fea26469706673582212204f6440e2f904815b1d8caaed2101fa8546f8fc9e3f3fdfe5933cc69f6ddf91bc64736f6c63430008130033",
  "immutableReferences": {},
  "source": "// SPDX-License-Identifier: GPL-3.0\r\n\r\npragma solidity ^0.8.19;\r\n\r\ncontract ContratoPaciente {\r\n\r\n    struct Paciente {\r\n        string nome;\r\n        uint idade;\r\n        string cpf;\r\n        string endereco;\r\n    }\r\n\r\n    mapping(address => Paciente) public pacientes;\r\n    mapping(bytes32 => bool) private cpfJaCadastrado;\r\n    Paciente[] public listaPacientes;\r\n\r\n    function _ehIdadeValida(uint _idade) private pure returns (bool) {\r\n        return _idade >= 12;\r\n    }\r\n\r\n    function _ehNomeValido(string memory _nome) private pure returns (bool) {\r\n        return bytes(_nome).length != 0;\r\n    }\r\n\r\n    function _validaCPF ( string memory _cpf) private pure returns (bool) {\r\n        return bytes(_cpf).length == 11;\r\n    }\r\n\r\n    function _ehPacienteValido(Paciente memory _paciente) private pure returns (bool) {\r\n        return _ehIdadeValida(_paciente.idade) && _ehNomeValido(_paciente.nome) && _validaCPF(_paciente.cpf);\r\n    }\r\n\r\n    function cadastrarPaciente(string memory _nome, uint _idade, string memory _cpf, string memory _endereco) public {\r\n        bytes32 cpfHash = keccak256(abi.encodePacked(_cpf));\r\n        require(!cpfJaCadastrado[cpfHash], \"CPF ja cadastrado por outro paciente!\");\r\n        Paciente memory paciente;\r\n        paciente.nome = _nome;\r\n        paciente.idade = _idade;\r\n        paciente.cpf = _cpf;\r\n        paciente.endereco = _endereco;\r\n\r\n        if (_ehPacienteValido(paciente)) {\r\n            pacientes[msg.sender] = paciente;\r\n            cpfJaCadastrado[cpfHash] = true;\r\n            listaPacientes.push(paciente);\r\n        } else {\r\n            revert(\"Os dados fornecidos nao sao validos para cadastro!\");\r\n        }\r\n    }\r\n\r\n    function verTodosPacientes() public view returns (Paciente[] memory) {\r\n        return listaPacientes;\r\n    }\r\n}\r\n",
  "sourcePath": "C:\\Users\\caiom\\OneDrive\\rea de Trabalho\\Projeto_BlockChain\\project-blockchain\\contracts\\ContratoPaciente.sol",
  "compiler": {
    "name": "solc",
    "version": "0.8.19+commit.7dd6d404.Emscripten.clang"
  },
  "schemaVersion": "3.4.16",
  "updatedAt": "2025-12-01T19:18:03.357Z",
  "networkType": "ethereum",
  "devdoc": {
    "kind": "dev",
    "methods": {},
    "version": 1
  },
  "userdoc": {
    "kind": "user",
    "methods": {},
    "version": 1
  }
}