{
  "contractName": "ContratoEstudante",
  "abi": [
    {
      "inputs": [
        {
          "internalType": "address",
          "name": "",
          "type": "address"
        }
      ],
      "name": "estudantes",
      "outputs": [
        {
          "internalType": "string",
          "name": "nome",
          "type": "string"
        },
        {
          "internalType": "uint256",
          "name": "idade",
          "type": "uint256"
        },
        {
          "internalType": "bool",
          "name": "preRequisito",
          "type": "bool"
        }
      ],
      "stateMutability": "view",
      "type": "function"
    },
    {
      "inputs": [
        {
          "internalType": "string",
          "name": "_nome",
          "type": "string"
        },
        {
          "internalType": "uint256",
          "name": "_idade",
          "type": "uint256"
        },
        {
          "internalType": "bool",
          "name": "_preRequisito",
          "type": "bool"
        }
      ],
      "name": "matricularEstudante",
      "outputs": [],
      "stateMutability": "nonpayable",
      "type": "function"
    }
  ],
  "bytecode": "0x608060405234801561001057600080fd5b506109dd806100206000396000f3fe608060405234801561001057600080fd5b50600436106100365760003560e01c80634d0b6efc1461003b578063f4ce6cff14610057575b600080fd5b61005560048036038101906100509190610488565b610089565b005b610071600480360381019061006c9190610555565b61018a565b6040516100809392919061061f565b60405180910390f35b61009161029d565b82816020018181525050838160000181905250818160400190151590811515815250506100bd81610249565b1561014957806000803373ffffffffffffffffffffffffffffffffffffffff1673ffffffffffffffffffffffffffffffffffffffff16815260200190815260200160002060008201518160000190816101169190610869565b506020820151816001015560408201518160020160006101000a81548160ff021916908315150217905550905050610184565b6040517f08c379a000000000000000000000000000000000000000000000000000000000815260040161017b90610987565b60405180910390fd5b50505050565b60006020528060005260406000206000915090508060000180546101ad9061068c565b80601f01602080910402602001604051908101604052809291908181526020018280546101d99061068c565b80156102265780601f106101fb57610100808354040283529160200191610226565b820191906000526020600020905b81548152906001019060200180831161020957829003601f168201915b5050505050908060010154908060020160009054906101000a900460ff16905083565b60006102588260200151610281565b801561026d575061026c826000015161028f565b5b801561027a575081604001515b9050919050565b600060128210159050919050565b600080825114159050919050565b604051806060016040528060608152602001600081526020016000151581525090565b6000604051905090565b600080fd5b600080fd5b600080fd5b600080fd5b6000601f19601f8301169050919050565b7f4e487b7100000000000000000000000000000000000000000000000000000000600052604160045260246000fd5b610327826102de565b810181811067ffffffffffffffff82111715610346576103456102ef565b5b80604052505050565b60006103596102c0565b9050610365828261031e565b919050565b600067ffffffffffffffff821115610385576103846102ef565b5b61038e826102de565b9050602081019050919050565b82818337600083830152505050565b60006103bd6103b88461036a565b61034f565b9050828152602081018484840111156103d9576103d86102d9565b5b6103e484828561039b565b509392505050565b600082601f830112610401576104006102d4565b5b81356104118482602086016103aa565b91505092915050565b6000819050919050565b61042d8161041a565b811461043857600080fd5b50565b60008135905061044a81610424565b92915050565b60008115159050919050565b61046581610450565b811461047057600080fd5b50565b6000813590506104828161045c565b92915050565b6000806000606084860312156104a1576104a06102ca565b5b600084013567ffffffffffffffff8111156104bf576104be6102cf565b5b6104cb868287016103ec565b93505060206104dc8682870161043b565b92505060406104ed86828701610473565b9150509250925092565b600073ffffffffffffffffffffffffffffffffffffffff82169050919050565b6000610522826104f7565b9050919050565b61053281610517565b811461053d57600080fd5b50565b60008135905061054f81610529565b92915050565b60006020828403121561056b5761056a6102ca565b5b600061057984828501610540565b91505092915050565b600081519050919050565b600082825260208201905092915050565b60005b838110156105bc5780820151818401526020810190506105a1565b60008484015250505050565b60006105d382610582565b6105dd818561058d565b93506105ed81856020860161059e565b6105f6816102de565b840191505092915050565b61060a8161041a565b82525050565b61061981610450565b82525050565b6000606082019050818103600083015261063981866105c8565b90506106486020830185610601565b6106556040830184610610565b949350505050565b7f4e487b7100000000000000000000000000000000000000000000000000000000600052602260045260246000fd5b600060028204905060018216806106a457607f821691505b6020821081036106b7576106b661065d565b5b50919050565b60008190508160005260206000209050919050565b60006020601f8301049050919050565b600082821b905092915050565b60006008830261071f7fffffffffffffffffffffffffffffffffffffffffffffffffffffffffffffffff826106e2565b61072986836106e2565b95508019841693508086168417925050509392505050565b6000819050919050565b600061076661076161075c8461041a565b610741565b61041a565b9050919050565b6000819050919050565b6107808361074b565b61079461078c8261076d565b8484546106ef565b825550505050565b600090565b6107a961079c565b6107b4818484610777565b505050565b5b818110156107d8576107cd6000826107a1565b6001810190506107ba565b5050565b601f82111561081d576107ee816106bd565b6107f7846106d2565b81016020851015610806578190505b61081a610812856106d2565b8301826107b9565b50505b505050565b600082821c905092915050565b600061084060001984600802610822565b1980831691505092915050565b6000610859838361082f565b9150826002028217905092915050565b61087282610582565b67ffffffffffffffff81111561088b5761088a6102ef565b5b610895825461068c565b6108a08282856107dc565b600060209050601f8311600181146108d357600084156108c1578287015190505b6108cb858261084d565b865550610933565b601f1984166108e1866106bd565b60005b82811015610909578489015182556001820191506020850194506020810190506108e4565b868310156109265784890151610922601f89168261082f565b8355505b6001600288020188555050505b505050505050565b7f4f73206461646f73206e616f2073616f2076616c69646f732100000000000000600082015250565b600061097160198361058d565b915061097c8261093b565b602082019050919050565b600060208201905081810360008301526109a081610964565b905091905056fea26469706673582212200df10094ea6712be3df8954b6887d3f3d91173f385d64ce2586cac41dff6e26164736f6c63430008130033",
  "immutableReferences": {},
  "source": "// SPDX-License-Identifier: GPL-3.0\r\n\r\npragma solidity ^0.8.19;\r\n\r\n\r\ncontract ContratoEstudante {\r\n\r\n    struct Estudante{\r\n        string nome;\r\n        uint idade;\r\n        bool preRequisito;\r\n    }\r\n\r\n    mapping (address => Estudante) public estudantes;\r\n\r\n    function _ehIdadeValidade(uint _idade) private pure returns(bool){\r\n        return _idade >= 18;\r\n    }\r\n\r\n    function _ehNomeValido(string memory _nome) private pure returns(bool){\r\n        return bytes(_nome).length != 0;\r\n    }\r\n\r\n    function _ehEstudanteValido(Estudante memory _estudante) private pure returns(bool){\r\n        return _ehIdadeValidade(_estudante.idade) && _ehNomeValido(_estudante.nome) && _estudante.preRequisito;\r\n    }\r\n\r\n    function matricularEstudante(string memory _nome, uint _idade, bool _preRequisito ) public {\r\n        Estudante memory estudante;\r\n        estudante.idade = _idade;\r\n        estudante.nome = _nome;\r\n        estudante.preRequisito = _preRequisito;\r\n        if(_ehEstudanteValido(estudante)){\r\n            estudantes[msg.sender] = estudante;\r\n        } else{\r\n            revert(\"Os dados nao sao validos!\");\r\n        }    \r\n    }\r\n}\r\n\r\n",
  "sourcePath": "C:\\Users\\mikae\\OneDrive\\Documentos\\project-blockchain\\contracts\\ContratoEstudante.sol",
  "compiler": {
    "name": "solc",
    "version": "0.8.19+commit.7dd6d404.Emscripten.clang"
  },
  "schemaVersion": "3.4.16",
  "updatedAt": "2025-11-05T22:25:15.882Z",
  "devdoc": {
    "kind": "dev",
    "methods": {},
    "version": 1
  },
  "userdoc": {
    "kind": "user",
    "methods": {},
    "version": 1
  }
}