{
  "contractName": "ContratoPaciente",
  "abi": [
    {
      "inputs": [
        {
          "internalType": "address",
          "name": "",
          "type": "address"
        }
      ],
      "name": "pacientes",
      "outputs": [
        {
          "internalType": "string",
          "name": "nome",
          "type": "string"
        },
        {
          "internalType": "uint256",
          "name": "idade",
          "type": "uint256"
        },
        {
          "internalType": "string",
          "name": "cpf",
          "type": "string"
        }
      ],
      "stateMutability": "view",
      "type": "function",
      "constant": true
    },
    {
      "inputs": [
        {
          "internalType": "string",
          "name": "_nome",
          "type": "string"
        },
        {
          "internalType": "uint256",
          "name": "_idade",
          "type": "uint256"
        },
        {
          "internalType": "string",
          "name": "_cpf",
          "type": "string"
        }
      ],
      "name": "cadastrarPaciente",
      "outputs": [],
      "stateMutability": "nonpayable",
      "type": "function"
    }
  ],
  "bytecode": "0x608060405234801561001057600080fd5b50610a5d806100206000396000f3fe608060405234801561001057600080fd5b50600436106100365760003560e01c8063bc14b7dc1461003b578063bcbd02fe1461006d575b600080fd5b610055600480360381019061005091906103b0565b610089565b60405161006493929190610486565b60405180910390f35b6100876004803603810190610082919061062c565b6101c3565b005b60006020528060005260406000206000915090508060000180546100ac906106e6565b80601f01602080910402602001604051908101604052809291908181526020018280546100d8906106e6565b80156101255780601f106100fa57610100808354040283529160200191610125565b820191906000526020600020905b81548152906001019060200180831161010857829003601f168201915b505050505090806001015490806002018054610140906106e6565b80601f016020809104026020016040519081016040528092919081815260200182805461016c906106e6565b80156101b95780601f1061018e576101008083540402835291602001916101b9565b820191906000526020600020905b81548152906001019060200180831161019c57829003601f168201915b5050505050905083565b6101cb61031d565b838160000181905250828160200181815250508181604001819052506101f0816102b3565b1561027257806000803373ffffffffffffffffffffffffffffffffffffffff1673ffffffffffffffffffffffffffffffffffffffff168152602001908152602001600020600082015181600001908161024991906108c3565b5060208201518160010155604082015181600201908161026991906108c3565b509050506102ad565b6040517f08c379a00000000000000000000000000000000000000000000000000000000081526004016102a490610a07565b60405180910390fd5b50505050565b60006102c282602001516102f3565b80156102d757506102d68260000151610301565b5b80156102ec57506102eb826040015161030f565b5b9050919050565b6000600c8210159050919050565b600080825114159050919050565b6000600c8251149050919050565b60405180606001604052806060815260200160008152602001606081525090565b6000604051905090565b600080fd5b600080fd5b600073ffffffffffffffffffffffffffffffffffffffff82169050919050565b600061037d82610352565b9050919050565b61038d81610372565b811461039857600080fd5b50565b6000813590506103aa81610384565b92915050565b6000602082840312156103c6576103c5610348565b5b60006103d48482850161039b565b91505092915050565b600081519050919050565b600082825260208201905092915050565b60005b838110156104175780820151818401526020810190506103fc565b60008484015250505050565b6000601f19601f8301169050919050565b600061043f826103dd565b61044981856103e8565b93506104598185602086016103f9565b61046281610423565b840191505092915050565b6000819050919050565b6104808161046d565b82525050565b600060608201905081810360008301526104a08186610434565b90506104af6020830185610477565b81810360408301526104c18184610434565b9050949350505050565b600080fd5b600080fd5b7f4e487b7100000000000000000000000000000000000000000000000000000000600052604160045260246000fd5b61050d82610423565b810181811067ffffffffffffffff8211171561052c5761052b6104d5565b5b80604052505050565b600061053f61033e565b905061054b8282610504565b919050565b600067ffffffffffffffff82111561056b5761056a6104d5565b5b61057482610423565b9050602081019050919050565b82818337600083830152505050565b60006105a361059e84610550565b610535565b9050828152602081018484840111156105bf576105be6104d0565b5b6105ca848285610581565b509392505050565b600082601f8301126105e7576105e66104cb565b5b81356105f7848260208601610590565b91505092915050565b6106098161046d565b811461061457600080fd5b50565b60008135905061062681610600565b92915050565b60008060006060848603121561064557610644610348565b5b600084013567ffffffffffffffff8111156106635761066261034d565b5b61066f868287016105d2565b935050602061068086828701610617565b925050604084013567ffffffffffffffff8111156106a1576106a061034d565b5b6106ad868287016105d2565b9150509250925092565b7f4e487b7100000000000000000000000000000000000000000000000000000000600052602260045260246000fd5b600060028204905060018216806106fe57607f821691505b602082108103610711576107106106b7565b5b50919050565b60008190508160005260206000209050919050565b60006020601f8301049050919050565b600082821b905092915050565b6000600883026107797fffffffffffffffffffffffffffffffffffffffffffffffffffffffffffffffff8261073c565b610783868361073c565b95508019841693508086168417925050509392505050565b6000819050919050565b60006107c06107bb6107b68461046d565b61079b565b61046d565b9050919050565b6000819050919050565b6107da836107a5565b6107ee6107e6826107c7565b848454610749565b825550505050565b600090565b6108036107f6565b61080e8184846107d1565b505050565b5b81811015610832576108276000826107fb565b600181019050610814565b5050565b601f8211156108775761084881610717565b6108518461072c565b81016020851015610860578190505b61087461086c8561072c565b830182610813565b50505b505050565b600082821c905092915050565b600061089a6000198460080261087c565b1980831691505092915050565b60006108b38383610889565b9150826002028217905092915050565b6108cc826103dd565b67ffffffffffffffff8111156108e5576108e46104d5565b5b6108ef82546106e6565b6108fa828285610836565b600060209050601f83116001811461092d576000841561091b578287015190505b61092585826108a7565b86555061098d565b601f19841661093b86610717565b60005b828110156109635784890151825560018201915060208501945060208101905061093e565b86831015610980578489015161097c601f891682610889565b8355505b6001600288020188555050505b505050505050565b7f4f73206461646f7320666f726e656369646f73206e616f2073616f2076616c6960008201527f646f73207061726120636164617374726f210000000000000000000000000000602082015250565b60006109f16032836103e8565b91506109fc82610995565b604082019050919050565b60006020820190508181036000830152610a20816109e4565b905091905056fea26469706673582212209f210c53fd7324cae641133237ee934cbfeff22788e5675e911adc1d3791894d64736f6c63430008130033",
  "immutableReferences": {},
  "source": "// SPDX-License-Identifier: GPL-3.0\r\n\r\npragma solidity ^0.8.19;\r\n\r\ncontract ContratoPaciente {\r\n\r\n    struct Paciente {\r\n        string nome;\r\n        uint idade;\r\n        string cpf;\r\n\r\n    }\r\n\r\n    mapping(address => Paciente) public pacientes;\r\n\r\n\r\n    function _ehIdadeValida(uint _idade) private pure returns (bool) {\r\n        return _idade >= 12;\r\n    }\r\n\r\n    function _ehNomeValido(string memory _nome) private pure returns (bool) {\r\n        return bytes(_nome).length != 0;\r\n    }\r\n\r\n    function _validaCPF ( string memory _cpf) private pure returns (bool) {\r\n         return bytes(_cpf).length == 12;\r\n\r\n    }\r\n\r\n    function _ehPacienteValido(Paciente memory _paciente) private pure returns (bool) {\r\n        return _ehIdadeValida(_paciente.idade) && _ehNomeValido(_paciente.nome) && _validaCPF(_paciente.cpf);\r\n    }\r\n\r\n    function cadastrarPaciente(string memory _nome, uint _idade, string memory _cpf) public {\r\n        Paciente memory paciente;\r\n        paciente.nome = _nome;\r\n        paciente.idade = _idade;\r\n        paciente.cpf = _cpf;\r\n\r\n        if (_ehPacienteValido(paciente)) {\r\n            pacientes[msg.sender] = paciente;\r\n        } else {\r\n            revert(\"Os dados fornecidos nao sao validos para cadastro!\");\r\n        }\r\n    }\r\n\r\n}\r\n",
  "sourcePath": "C:\\Users\\mikae\\OneDrive\\Documentos\\project-blockchain\\contracts\\ContratoPaciente.sol",
  "compiler": {
    "name": "solc",
    "version": "0.8.19+commit.7dd6d404.Emscripten.clang"
  },
  "schemaVersion": "3.4.16",
  "updatedAt": "2025-11-07T13:28:53.802Z",
  "networkType": "ethereum",
  "devdoc": {
    "kind": "dev",
    "methods": {},
    "version": 1
  },
  "userdoc": {
    "kind": "user",
    "methods": {},
    "version": 1
  }
}