{
  "contractName": "ContratoJogo",
  "abi": [
    {
      "inputs": [
        {
          "internalType": "address",
          "name": "",
          "type": "address"
        }
      ],
      "name": "jogadores",
      "outputs": [
        {
          "internalType": "string",
          "name": "nome",
          "type": "string"
        },
        {
          "internalType": "uint256",
          "name": "idade",
          "type": "uint256"
        },
        {
          "internalType": "bool",
          "name": "aceitouTermos",
          "type": "bool"
        }
      ],
      "stateMutability": "view",
      "type": "function",
      "constant": true
    },
    {
      "inputs": [
        {
          "internalType": "string",
          "name": "_nome",
          "type": "string"
        },
        {
          "internalType": "uint256",
          "name": "_idade",
          "type": "uint256"
        },
        {
          "internalType": "bool",
          "name": "_aceitouTermos",
          "type": "bool"
        }
      ],
      "name": "cadastrarJogador",
      "outputs": [],
      "stateMutability": "nonpayable",
      "type": "function"
    },
    {
      "inputs": [
        {
          "internalType": "address",
          "name": "_endereco",
          "type": "address"
        }
      ],
      "name": "obterJogador",
      "outputs": [
        {
          "internalType": "string",
          "name": "",
          "type": "string"
        },
        {
          "internalType": "uint256",
          "name": "",
          "type": "uint256"
        },
        {
          "internalType": "bool",
          "name": "",
          "type": "bool"
        }
      ],
      "stateMutability": "view",
      "type": "function",
      "constant": true
    }
  ],
  "bytecode": "0x608060405234801561001057600080fd5b50610b66806100206000396000f3fe608060405234801561001057600080fd5b50600436106100415760003560e01c806381aaafaf1461004657806394c3b6f814610062578063a8e43cf314610094575b600080fd5b610060600480360381019061005b91906105eb565b6100c6565b005b61007c600480360381019061007791906106b8565b6101c7565b60405161008b93929190610782565b60405180910390f35b6100ae60048036038101906100a991906106b8565b6102ed565b6040516100bd93929190610782565b60405180910390f35b6100ce610400565b83816000018190525082816020018181525050818160400190151590811515815250506100fa816103ac565b1561018657806000803373ffffffffffffffffffffffffffffffffffffffff1673ffffffffffffffffffffffffffffffffffffffff168152602001908152602001600020600082015181600001908161015391906109cc565b506020820151816001015560408201518160020160006101000a81548160ff0219169083151502179055509050506101c1565b6040517f08c379a00000000000000000000000000000000000000000000000000000000081526004016101b890610b10565b60405180910390fd5b50505050565b606060008060008060008673ffffffffffffffffffffffffffffffffffffffff1673ffffffffffffffffffffffffffffffffffffffff168152602001908152602001600020604051806060016040529081600082018054610227906107ef565b80601f0160208091040260200160405190810160405280929190818152602001828054610253906107ef565b80156102a05780601f10610275576101008083540402835291602001916102a0565b820191906000526020600020905b81548152906001019060200180831161028357829003601f168201915b50505050508152602001600182015481526020016002820160009054906101000a900460ff1615151515815250509050806000015181602001518260400151935093509350509193909250565b6000602052806000526040600020600091509050806000018054610310906107ef565b80601f016020809104026020016040519081016040528092919081815260200182805461033c906107ef565b80156103895780601f1061035e57610100808354040283529160200191610389565b820191906000526020600020905b81548152906001019060200180831161036c57829003601f168201915b5050505050908060010154908060020160009054906101000a900460ff16905083565b60006103bb82602001516103e4565b80156103d057506103cf82600001516103f2565b5b80156103dd575081604001515b9050919050565b6000600d8210159050919050565b600080825114159050919050565b604051806060016040528060608152602001600081526020016000151581525090565b6000604051905090565b600080fd5b600080fd5b600080fd5b600080fd5b6000601f19601f8301169050919050565b7f4e487b7100000000000000000000000000000000000000000000000000000000600052604160045260246000fd5b61048a82610441565b810181811067ffffffffffffffff821117156104a9576104a8610452565b5b80604052505050565b60006104bc610423565b90506104c88282610481565b919050565b600067ffffffffffffffff8211156104e8576104e7610452565b5b6104f182610441565b9050602081019050919050565b82818337600083830152505050565b600061052061051b846104cd565b6104b2565b90508281526020810184848401111561053c5761053b61043c565b5b6105478482856104fe565b509392505050565b600082601f83011261056457610563610437565b5b813561057484826020860161050d565b91505092915050565b6000819050919050565b6105908161057d565b811461059b57600080fd5b50565b6000813590506105ad81610587565b92915050565b60008115159050919050565b6105c8816105b3565b81146105d357600080fd5b50565b6000813590506105e5816105bf565b92915050565b6000806000606084860312156106045761060361042d565b5b600084013567ffffffffffffffff81111561062257610621610432565b5b61062e8682870161054f565b935050602061063f8682870161059e565b9250506040610650868287016105d6565b9150509250925092565b600073ffffffffffffffffffffffffffffffffffffffff82169050919050565b60006106858261065a565b9050919050565b6106958161067a565b81146106a057600080fd5b50565b6000813590506106b28161068c565b92915050565b6000602082840312156106ce576106cd61042d565b5b60006106dc848285016106a3565b91505092915050565b600081519050919050565b600082825260208201905092915050565b60005b8381101561071f578082015181840152602081019050610704565b60008484015250505050565b6000610736826106e5565b61074081856106f0565b9350610750818560208601610701565b61075981610441565b840191505092915050565b61076d8161057d565b82525050565b61077c816105b3565b82525050565b6000606082019050818103600083015261079c818661072b565b90506107ab6020830185610764565b6107b86040830184610773565b949350505050565b7f4e487b7100000000000000000000000000000000000000000000000000000000600052602260045260246000fd5b6000600282049050600182168061080757607f821691505b60208210810361081a576108196107c0565b5b50919050565b60008190508160005260206000209050919050565b60006020601f8301049050919050565b600082821b905092915050565b6000600883026108827fffffffffffffffffffffffffffffffffffffffffffffffffffffffffffffffff82610845565b61088c8683610845565b95508019841693508086168417925050509392505050565b6000819050919050565b60006108c96108c46108bf8461057d565b6108a4565b61057d565b9050919050565b6000819050919050565b6108e3836108ae565b6108f76108ef826108d0565b848454610852565b825550505050565b600090565b61090c6108ff565b6109178184846108da565b505050565b5b8181101561093b57610930600082610904565b60018101905061091d565b5050565b601f8211156109805761095181610820565b61095a84610835565b81016020851015610969578190505b61097d61097585610835565b83018261091c565b50505b505050565b600082821c905092915050565b60006109a360001984600802610985565b1980831691505092915050565b60006109bc8383610992565b9150826002028217905092915050565b6109d5826106e5565b67ffffffffffffffff8111156109ee576109ed610452565b5b6109f882546107ef565b610a0382828561093f565b600060209050601f831160018114610a365760008415610a24578287015190505b610a2e85826109b0565b865550610a96565b601f198416610a4486610820565b60005b82811015610a6c57848901518255600182019150602085019450602081019050610a47565b86831015610a895784890151610a85601f891682610992565b8355505b6001600288020188555050505b505050505050565b7f4f73206461646f7320666f726e656369646f73206e616f2073616f2076616c6960008201527f646f73207061726120636164617374726f210000000000000000000000000000602082015250565b6000610afa6032836106f0565b9150610b0582610a9e565b604082019050919050565b60006020820190508181036000830152610b2981610aed565b905091905056fea26469706673582212206e9f5d33e34a3f3af9bd576a35381e9d671ef777eaa66b8deb81cb5966260f4e64736f6c63430008130033",
  "immutableReferences": {},
  "source": "// SPDX-License-Identifier: GPL-3.0\r\n\r\npragma solidity ^0.8.19;\r\n\r\ncontract ContratoJogo {\r\n\r\n    struct Jogador {\r\n        string nome;\r\n        uint idade;\r\n        bool aceitouTermos;\r\n    }\r\n\r\n    mapping(address => Jogador) public jogadores;\r\n\r\n    // Verifica se a idade  vlida (mnimo de 13 anos)\r\n    function _ehIdadeValida(uint _idade) private pure returns (bool) {\r\n        return _idade >= 13;\r\n    }\r\n\r\n    // Verifica se o nome no  vazio\r\n    function _ehNomeValido(string memory _nome) private pure returns (bool) {\r\n        return bytes(_nome).length != 0;\r\n    }\r\n\r\n    // Verifica se o jogador cumpre os requisitos para cadastro\r\n    function _ehJogadorValido(Jogador memory _jogador) private pure returns (bool) {\r\n        return _ehIdadeValida(_jogador.idade) && _ehNomeValido(_jogador.nome) && _jogador.aceitouTermos;\r\n    }\r\n\r\n    // Funo pblica para cadastrar um jogador\r\n    function cadastrarJogador(string memory _nome, uint _idade, bool _aceitouTermos) public {\r\n        Jogador memory jogador;\r\n        jogador.nome = _nome;\r\n        jogador.idade = _idade;\r\n        jogador.aceitouTermos = _aceitouTermos;\r\n\r\n        if (_ehJogadorValido(jogador)) {\r\n            jogadores[msg.sender] = jogador;\r\n        } else {\r\n            revert(\"Os dados fornecidos nao sao validos para cadastro!\");\r\n        }\r\n    }\r\n\r\n    // Retorna os dados de um jogador pelo endereo\r\n    function obterJogador(address _endereco) public view returns (string memory, uint, bool) {\r\n        Jogador memory j = jogadores[_endereco];\r\n        return (j.nome, j.idade, j.aceitouTermos);\r\n    }\r\n}\r\n",
  "sourcePath": "C:\\Users\\mikae\\OneDrive\\Documentos\\project-blockchain\\contracts\\ContratoJogo.sol",
  "compiler": {
    "name": "solc",
    "version": "0.8.19+commit.7dd6d404.Emscripten.clang"
  },
  "schemaVersion": "3.4.16",
  "updatedAt": "2025-11-05T22:25:20.017Z",
  "networkType": "ethereum",
  "devdoc": {
    "kind": "dev",
    "methods": {},
    "version": 1
  },
  "userdoc": {
    "kind": "user",
    "methods": {},
    "version": 1
  }
}