{
  "contractName": "ContratoEstudante",
  "abi": [
    {
      "inputs": [
        {
          "internalType": "address",
          "name": "",
          "type": "address"
        }
      ],
      "name": "estudantes",
      "outputs": [
        {
          "internalType": "string",
          "name": "nome",
          "type": "string"
        },
        {
          "internalType": "uint256",
          "name": "idade",
          "type": "uint256"
        },
        {
          "internalType": "string",
          "name": "CPF",
          "type": "string"
        },
        {
          "internalType": "bool",
          "name": "preRequisito",
          "type": "bool"
        }
      ],
      "stateMutability": "view",
      "type": "function",
      "constant": true
    },
    {
      "inputs": [
        {
          "internalType": "string",
          "name": "_nome",
          "type": "string"
        },
        {
          "internalType": "uint256",
          "name": "_idade",
          "type": "uint256"
        },
        {
          "internalType": "string",
          "name": "_CPF",
          "type": "string"
        },
        {
          "internalType": "bool",
          "name": "_preRequisito",
          "type": "bool"
        }
      ],
      "name": "matricularEstudante",
      "outputs": [],
      "stateMutability": "nonpayable",
      "type": "function"
    }
  ],
  "bytecode": "0x608060405234801561001057600080fd5b50610afb806100206000396000f3fe608060405234801561001057600080fd5b50600436106100365760003560e01c8063031e81f71461003b578063f4ce6cff14610057575b600080fd5b61005560048036038101906100509190610561565b61008a565b005b610071600480360381019061006c919061065e565b6101ab565b6040516100819493929190610728565b60405180910390f35b61009261036f565b83816020018181525050848160000181905250828160400181905250818160600190151590811515815250506100c7816102f8565b1561016957806000803373ffffffffffffffffffffffffffffffffffffffff1673ffffffffffffffffffffffffffffffffffffffff16815260200190815260200160002060008201518160000190816101209190610987565b506020820151816001015560408201518160020190816101409190610987565b5060608201518160030160006101000a81548160ff0219169083151502179055509050506101a4565b6040517f08c379a000000000000000000000000000000000000000000000000000000000815260040161019b90610aa5565b60405180910390fd5b5050505050565b60006020528060005260406000206000915090508060000180546101ce906107aa565b80601f01602080910402602001604051908101604052809291908181526020018280546101fa906107aa565b80156102475780601f1061021c57610100808354040283529160200191610247565b820191906000526020600020905b81548152906001019060200180831161022a57829003601f168201915b505050505090806001015490806002018054610262906107aa565b80601f016020809104026020016040519081016040528092919081815260200182805461028e906107aa565b80156102db5780601f106102b0576101008083540402835291602001916102db565b820191906000526020600020905b8154815290600101906020018083116102be57829003601f168201915b5050505050908060030160009054906101000a900460ff16905084565b60006103078260200151610345565b801561031c575061031b8260000151610353565b5b801561033157506103308260400151610361565b5b801561033e575081606001515b9050919050565b6000600c8210159050919050565b600080825114159050919050565b6000600c8251149050919050565b60405180608001604052806060815260200160008152602001606081526020016000151581525090565b6000604051905090565b600080fd5b600080fd5b600080fd5b600080fd5b6000601f19601f8301169050919050565b7f4e487b7100000000000000000000000000000000000000000000000000000000600052604160045260246000fd5b610400826103b7565b810181811067ffffffffffffffff8211171561041f5761041e6103c8565b5b80604052505050565b6000610432610399565b905061043e82826103f7565b919050565b600067ffffffffffffffff82111561045e5761045d6103c8565b5b610467826103b7565b9050602081019050919050565b82818337600083830152505050565b600061049661049184610443565b610428565b9050828152602081018484840111156104b2576104b16103b2565b5b6104bd848285610474565b509392505050565b600082601f8301126104da576104d96103ad565b5b81356104ea848260208601610483565b91505092915050565b6000819050919050565b610506816104f3565b811461051157600080fd5b50565b600081359050610523816104fd565b92915050565b60008115159050919050565b61053e81610529565b811461054957600080fd5b50565b60008135905061055b81610535565b92915050565b6000806000806080858703121561057b5761057a6103a3565b5b600085013567ffffffffffffffff811115610599576105986103a8565b5b6105a5878288016104c5565b94505060206105b687828801610514565b935050604085013567ffffffffffffffff8111156105d7576105d66103a8565b5b6105e3878288016104c5565b92505060606105f48782880161054c565b91505092959194509250565b600073ffffffffffffffffffffffffffffffffffffffff82169050919050565b600061062b82610600565b9050919050565b61063b81610620565b811461064657600080fd5b50565b60008135905061065881610632565b92915050565b600060208284031215610674576106736103a3565b5b600061068284828501610649565b91505092915050565b600081519050919050565b600082825260208201905092915050565b60005b838110156106c55780820151818401526020810190506106aa565b60008484015250505050565b60006106dc8261068b565b6106e68185610696565b93506106f68185602086016106a7565b6106ff816103b7565b840191505092915050565b610713816104f3565b82525050565b61072281610529565b82525050565b6000608082019050818103600083015261074281876106d1565b9050610751602083018661070a565b818103604083015261076381856106d1565b90506107726060830184610719565b95945050505050565b7f4e487b7100000000000000000000000000000000000000000000000000000000600052602260045260246000fd5b600060028204905060018216806107c257607f821691505b6020821081036107d5576107d461077b565b5b50919050565b60008190508160005260206000209050919050565b60006020601f8301049050919050565b600082821b905092915050565b60006008830261083d7fffffffffffffffffffffffffffffffffffffffffffffffffffffffffffffffff82610800565b6108478683610800565b95508019841693508086168417925050509392505050565b6000819050919050565b600061088461087f61087a846104f3565b61085f565b6104f3565b9050919050565b6000819050919050565b61089e83610869565b6108b26108aa8261088b565b84845461080d565b825550505050565b600090565b6108c76108ba565b6108d2818484610895565b505050565b5b818110156108f6576108eb6000826108bf565b6001810190506108d8565b5050565b601f82111561093b5761090c816107db565b610915846107f0565b81016020851015610924578190505b610938610930856107f0565b8301826108d7565b50505b505050565b600082821c905092915050565b600061095e60001984600802610940565b1980831691505092915050565b6000610977838361094d565b9150826002028217905092915050565b6109908261068b565b67ffffffffffffffff8111156109a9576109a86103c8565b5b6109b382546107aa565b6109be8282856108fa565b600060209050601f8311600181146109f157600084156109df578287015190505b6109e9858261096b565b865550610a51565b601f1984166109ff866107db565b60005b82811015610a2757848901518255600182019150602085019450602081019050610a02565b86831015610a445784890151610a40601f89168261094d565b8355505b6001600288020188555050505b505050505050565b7f4f73206461646f73206e616f2073616f2076616c69646f732100000000000000600082015250565b6000610a8f601983610696565b9150610a9a82610a59565b602082019050919050565b60006020820190508181036000830152610abe81610a82565b905091905056fea26469706673582212205d170b1ef97bb3c3735a3f4fc5de29e241b40b3f8f38083de8093e08d366c64964736f6c63430008130033",
  "immutableReferences": {},
  "source": "// SPDX-License-Identifier: GPL-3.0\r\n\r\npragma solidity ^0.8.19;\r\n\r\n\r\ncontract ContratoEstudante {\r\n\r\n    struct Estudante{\r\n        string nome;\r\n        uint idade;\r\n        string CPF;\r\n        bool preRequisito;\r\n    }\r\n\r\n    mapping (address => Estudante) public estudantes;\r\n\r\n    function _ehIdadeValidade(uint _idade) private pure returns(bool){\r\n        return _idade >= 12;\r\n    }\r\n\r\n    function _validaCPF ( string memory _CPF) private pure returns (bool) {\r\n         return bytes(_CPF).length == 12;\r\n\r\n    }\r\n\r\n    function _ehNomeValido(string memory _nome) private pure returns(bool){\r\n        return bytes(_nome).length != 0;\r\n    }\r\n\r\n    function _ehEstudanteValido(Estudante memory _estudante) private pure returns(bool){\r\n        return _ehIdadeValidade(_estudante.idade) && _ehNomeValido(_estudante.nome) && _validaCPF(_estudante.CPF) && _estudante.preRequisito;\r\n    }\r\n\r\n    function matricularEstudante(string memory _nome, uint _idade, string memory _CPF, bool _preRequisito ) public {\r\n        Estudante memory estudante;\r\n        estudante.idade = _idade;\r\n        estudante.nome = _nome;\r\n        estudante.CPF = _CPF;\r\n        estudante.preRequisito = _preRequisito;\r\n        if(_ehEstudanteValido(estudante)){\r\n            estudantes[msg.sender] = estudante;\r\n        } else{\r\n            revert(\"Os dados nao sao validos!\");\r\n        }    \r\n    }\r\n}\r\n\r\n",
  "sourcePath": "C:\\Users\\caiom\\OneDrive\\rea de Trabalho\\Projeto_BlockChain\\project-blockchain\\contracts\\ContratoEstudante.sol",
  "compiler": {
    "name": "solc",
    "version": "0.8.19+commit.7dd6d404.Emscripten.clang"
  },
  "schemaVersion": "3.4.16",
  "updatedAt": "2025-12-01T13:07:52.459Z",
  "networkType": "ethereum",
  "devdoc": {
    "kind": "dev",
    "methods": {},
    "version": 1
  },
  "userdoc": {
    "kind": "user",
    "methods": {},
    "version": 1
  }
}