{
  "contractName": "ContratoPaciente",
  "abi": [
    {
      "inputs": [
        {
          "internalType": "address",
          "name": "",
          "type": "address"
        }
      ],
      "name": "pacientes",
      "outputs": [
        {
          "internalType": "string",
          "name": "nome",
          "type": "string"
        },
        {
          "internalType": "uint256",
          "name": "idade",
          "type": "uint256"
        },
        {
          "internalType": "string",
          "name": "cpf",
          "type": "string"
        },
        {
          "internalType": "string",
          "name": "endereco",
          "type": "string"
        }
      ],
      "stateMutability": "view",
      "type": "function",
      "constant": true
    },
    {
      "inputs": [
        {
          "internalType": "string",
          "name": "_nome",
          "type": "string"
        },
        {
          "internalType": "uint256",
          "name": "_idade",
          "type": "uint256"
        },
        {
          "internalType": "string",
          "name": "_cpf",
          "type": "string"
        },
        {
          "internalType": "string",
          "name": "_endereco",
          "type": "string"
        }
      ],
      "name": "cadastrarPaciente",
      "outputs": [],
      "stateMutability": "nonpayable",
      "type": "function"
    }
  ],
  "bytecode": "0x608060405234801561001057600080fd5b50610ced806100206000396000f3fe608060405234801561001057600080fd5b50600436106100365760003560e01c8063bc14b7dc1461003b578063c34af3e61461006e575b600080fd5b61005560048036038101906100509190610516565b61008a565b60405161006594939291906105ec565b60405180910390f35b610088600480360381019061008391906107a7565b610252565b005b60006020528060005260406000206000915090508060000180546100ad90610891565b80601f01602080910402602001604051908101604052809291908181526020018280546100d990610891565b80156101265780601f106100fb57610100808354040283529160200191610126565b820191906000526020600020905b81548152906001019060200180831161010957829003601f168201915b50505050509080600101549080600201805461014190610891565b80601f016020809104026020016040519081016040528092919081815260200182805461016d90610891565b80156101ba5780601f1061018f576101008083540402835291602001916101ba565b820191906000526020600020905b81548152906001019060200180831161019d57829003601f168201915b5050505050908060030180546101cf90610891565b80601f01602080910402602001604051908101604052809291908181526020018280546101fb90610891565b80156102485780601f1061021d57610100808354040283529160200191610248565b820191906000526020600020905b81548152906001019060200180831161022b57829003601f168201915b5050505050905084565b60018260405161026291906108fe565b908152602001604051809103902060009054906101000a900460ff16156102be576040517f08c379a00000000000000000000000000000000000000000000000000000000081526004016102b590610987565b60405180910390fd5b6102c661047c565b848160000181905250838160200181815250508281604001819052508181606001819052506102f481610404565b156103c257806000803373ffffffffffffffffffffffffffffffffffffffff1673ffffffffffffffffffffffffffffffffffffffff168152602001908152602001600020600082015181600001908161034d9190610b53565b5060208201518160010155604082015181600201908161036d9190610b53565b5060608201518160030190816103839190610b53565b509050506001808460405161039891906108fe565b908152602001604051809103902060006101000a81548160ff0219169083151502179055506103fd565b6040517f08c379a00000000000000000000000000000000000000000000000000000000081526004016103f490610c97565b60405180910390fd5b5050505050565b60006104138260200151610444565b801561042857506104278260000151610452565b5b801561043d575061043c8260400151610460565b5b9050919050565b6000600c8210159050919050565b600080825114159050919050565b6000600c825114801561047557506000825114155b9050919050565b6040518060800160405280606081526020016000815260200160608152602001606081525090565b6000604051905090565b600080fd5b600080fd5b600073ffffffffffffffffffffffffffffffffffffffff82169050919050565b60006104e3826104b8565b9050919050565b6104f3816104d8565b81146104fe57600080fd5b50565b600081359050610510816104ea565b92915050565b60006020828403121561052c5761052b6104ae565b5b600061053a84828501610501565b91505092915050565b600081519050919050565b600082825260208201905092915050565b60005b8381101561057d578082015181840152602081019050610562565b60008484015250505050565b6000601f19601f8301169050919050565b60006105a582610543565b6105af818561054e565b93506105bf81856020860161055f565b6105c881610589565b840191505092915050565b6000819050919050565b6105e6816105d3565b82525050565b60006080820190508181036000830152610606818761059a565b905061061560208301866105dd565b8181036040830152610627818561059a565b9050818103606083015261063b818461059a565b905095945050505050565b600080fd5b600080fd5b7f4e487b7100000000000000000000000000000000000000000000000000000000600052604160045260246000fd5b61068882610589565b810181811067ffffffffffffffff821117156106a7576106a6610650565b5b80604052505050565b60006106ba6104a4565b90506106c6828261067f565b919050565b600067ffffffffffffffff8211156106e6576106e5610650565b5b6106ef82610589565b9050602081019050919050565b82818337600083830152505050565b600061071e610719846106cb565b6106b0565b90508281526020810184848401111561073a5761073961064b565b5b6107458482856106fc565b509392505050565b600082601f83011261076257610761610646565b5b813561077284826020860161070b565b91505092915050565b610784816105d3565b811461078f57600080fd5b50565b6000813590506107a18161077b565b92915050565b600080600080608085870312156107c1576107c06104ae565b5b600085013567ffffffffffffffff8111156107df576107de6104b3565b5b6107eb8782880161074d565b94505060206107fc87828801610792565b935050604085013567ffffffffffffffff81111561081d5761081c6104b3565b5b6108298782880161074d565b925050606085013567ffffffffffffffff81111561084a576108496104b3565b5b6108568782880161074d565b91505092959194509250565b7f4e487b7100000000000000000000000000000000000000000000000000000000600052602260045260246000fd5b600060028204905060018216806108a957607f821691505b6020821081036108bc576108bb610862565b5b50919050565b600081905092915050565b60006108d882610543565b6108e281856108c2565b93506108f281856020860161055f565b80840191505092915050565b600061090a82846108cd565b915081905092915050565b7f435046206a61206361646173747261646f20706f72206f7574726f207061636960008201527f656e746521000000000000000000000000000000000000000000000000000000602082015250565b600061097160258361054e565b915061097c82610915565b604082019050919050565b600060208201905081810360008301526109a081610964565b9050919050565b60008190508160005260206000209050919050565b60006020601f8301049050919050565b600082821b905092915050565b600060088302610a097fffffffffffffffffffffffffffffffffffffffffffffffffffffffffffffffff826109cc565b610a1386836109cc565b95508019841693508086168417925050509392505050565b6000819050919050565b6000610a50610a4b610a46846105d3565b610a2b565b6105d3565b9050919050565b6000819050919050565b610a6a83610a35565b610a7e610a7682610a57565b8484546109d9565b825550505050565b600090565b610a93610a86565b610a9e818484610a61565b505050565b5b81811015610ac257610ab7600082610a8b565b600181019050610aa4565b5050565b601f821115610b0757610ad8816109a7565b610ae1846109bc565b81016020851015610af0578190505b610b04610afc856109bc565b830182610aa3565b50505b505050565b600082821c905092915050565b6000610b2a60001984600802610b0c565b1980831691505092915050565b6000610b438383610b19565b9150826002028217905092915050565b610b5c82610543565b67ffffffffffffffff811115610b7557610b74610650565b5b610b7f8254610891565b610b8a828285610ac6565b600060209050601f831160018114610bbd5760008415610bab578287015190505b610bb58582610b37565b865550610c1d565b601f198416610bcb866109a7565b60005b82811015610bf357848901518255600182019150602085019450602081019050610bce565b86831015610c105784890151610c0c601f891682610b19565b8355505b6001600288020188555050505b505050505050565b7f4f73206461646f7320666f726e656369646f73206e616f2073616f2076616c6960008201527f646f73207061726120636164617374726f210000000000000000000000000000602082015250565b6000610c8160328361054e565b9150610c8c82610c25565b604082019050919050565b60006020820190508181036000830152610cb081610c74565b905091905056fea264697066735822122013e0748c2fa5800a9a1d4c037855194da307f84a7ec1f7dc123f056eb94022d164736f6c63430008130033",
  "immutableReferences": {},
  "source": "// SPDX-License-Identifier: GPL-3.0\r\n\r\npragma solidity ^0.8.19;\r\n\r\ncontract ContratoPaciente {\r\n\r\n    struct Paciente {\r\n        string nome;\r\n        uint idade;\r\n        string cpf;\r\n        string endereco;\r\n    }\r\n\r\n    mapping(address => Paciente) public pacientes;\r\n    mapping(string => bool) private cpfJaCadastrado;\r\n\r\n\r\n    function _ehIdadeValida(uint _idade) private pure returns (bool) {\r\n        return _idade >= 12;\r\n    }\r\n\r\n    function _ehNomeValido(string memory _nome) private pure returns (bool) {\r\n        return bytes(_nome).length != 0;\r\n    }\r\n\r\n    function _validaCPF ( string memory _cpf) private pure returns (bool) {\r\n        return bytes(_cpf).length == 12 && bytes(_cpf).length != 0;\r\n    }\r\n\r\n    function _ehPacienteValido(Paciente memory _paciente) private pure returns (bool) {\r\n        return _ehIdadeValida(_paciente.idade) && _ehNomeValido(_paciente.nome) && _validaCPF(_paciente.cpf);\r\n    }\r\n\r\n    function cadastrarPaciente(string memory _nome, uint _idade, string memory _cpf, string memory _endereco) public {\r\n        require(!cpfJaCadastrado[_cpf], \"CPF ja cadastrado por outro paciente!\");\r\n        Paciente memory paciente;\r\n        paciente.nome = _nome;\r\n        paciente.idade = _idade;\r\n        paciente.cpf = _cpf;\r\n        paciente.endereco = _endereco;\r\n\r\n        if (_ehPacienteValido(paciente)) {\r\n            pacientes[msg.sender] = paciente;\r\n            cpfJaCadastrado[_cpf] = true;\r\n        } else {\r\n            revert(\"Os dados fornecidos nao sao validos para cadastro!\");\r\n        }\r\n    }\r\n\r\n}\r\n",
  "sourcePath": "C:\\Users\\caiom\\OneDrive\\rea de Trabalho\\Projeto_BlockChain\\project-blockchain\\contracts\\ContratoPaciente.sol",
  "compiler": {
    "name": "solc",
    "version": "0.8.19+commit.7dd6d404.Emscripten.clang"
  },
  "schemaVersion": "3.4.16",
  "updatedAt": "2025-11-28T15:23:18.300Z",
  "networkType": "ethereum",
  "devdoc": {
    "kind": "dev",
    "methods": {},
    "version": 1
  },
  "userdoc": {
    "kind": "user",
    "methods": {},
    "version": 1
  }
}